{
  "contractName": "IsOwned",
  "abi": [
    {
      "inputs": [],
      "payable": false,
      "stateMutability": "nonpayable",
      "type": "constructor"
    },
    {
      "constant": true,
      "inputs": [],
      "name": "owner",
      "outputs": [
        {
          "internalType": "address",
          "name": "",
          "type": "address"
        }
      ],
      "payable": false,
      "stateMutability": "view",
      "type": "function"
    }
  ],
  "bytecode": "0x608060405234801561001057600080fd5b50336000806101000a81548173ffffffffffffffffffffffffffffffffffffffff021916908373ffffffffffffffffffffffffffffffffffffffff16021790555060cf8061005f6000396000f3fe6080604052348015600f57600080fd5b506004361060285760003560e01c80638da5cb5b14602d575b600080fd5b60336075565b604051808273ffffffffffffffffffffffffffffffffffffffff1673ffffffffffffffffffffffffffffffffffffffff16815260200191505060405180910390f35b6000809054906101000a900473ffffffffffffffffffffffffffffffffffffffff168156fea265627a7a723158200633d5a6ac63f1cce793aadecc09dc7535cfff333af211bcf2d8b8922f8d816864736f6c63430005100032",
  "source": "// SPDX-License-Identifier: MIT\r\npragma solidity ^0.5.16;\r\n\r\ncontract IsOwned {\r\n    address public owner;\r\n    constructor() public{\r\n        owner = msg.sender;\r\n    }\r\n    modifier onlyOwner() {\r\n    require(msg.sender == owner);\r\n    _; \r\n    }\r\n}\r\n\r\ncontract Authentication is IsOwned{\r\n address user;\r\n uint256 token;\r\n bool public flag = false;\r\n \r\n struct VehicleOwner {\r\n     string name;\r\n     uint driverID;\r\n     uint currentDriver;\r\n     uint vehicleNumber;\r\n     uint[] authorizedDrivers; \r\n }\r\n \r\n event authenticatedEvent (\r\n    uint indexed _id\r\n );\r\n\r\n VehicleOwner public vehicleOwner;\r\n string public name = \"Rashi\";\r\n function authenticate(uint _token, string memory _name, uint _vehicleNumber, uint _driverID\r\n    ) public payable onlyOwner returns(string memory){\r\n\r\n        if(flag == false){\r\n            user = msg.sender;\r\n            if(_token > 0){\r\n                vehicleOwner.name = _name;\r\n                vehicleOwner.vehicleNumber = _vehicleNumber;\r\n                vehicleOwner.currentDriver = _driverID;\r\n                vehicleOwner.driverID = _driverID;\r\n                vehicleOwner.authorizedDrivers.push(_driverID);\r\n                token = _token;\r\n                flag = true;\r\n                emit authenticatedEvent(_token);\r\n                return \"Token set successfully\";\r\n            }\r\n            else {\r\n                return \"Invalid Token\";\r\n            }\r\n            \r\n        }\r\n        else{\r\n            if(msg.sender == user){\r\n                if(_token == token){\r\n                    return \"Authentication Successful\";\r\n                }\r\n                else {\r\n                    return \"Authentication Failed\";\r\n                }}\r\n            else {\r\n                return \"Invalid User\";\r\n            } \r\n        }\r\n    }\r\n    \r\n    function addDriver(uint _token, uint _driverID) public payable onlyOwner returns(string memory){\r\n        require(token == _token, \"Please Authenticate\");\r\n        vehicleOwner.authorizedDrivers.push(_driverID);\r\n        return \"Driver added successfully\";\r\n    }\r\n    \r\n    function updateCurrentDriver(uint _token, uint _driverID) public payable onlyOwner returns(string memory){\r\n        require(token == _token, \"Please Authenticate\");\r\n        bool authorized = false;\r\n        for(uint i=0;i<vehicleOwner.authorizedDrivers.length; i++)\r\n        {\r\n            if(vehicleOwner.authorizedDrivers[i] == _driverID)\r\n            {\r\n                vehicleOwner.currentDriver = _driverID;\r\n                emit authenticatedEvent(_token);\r\n                authorized = true;\r\n                return \"Current Driver Updated\";\r\n            }\r\n        }\r\n        require(authorized == true, \"Not an authorized driver\");\r\n        return \"Not an authorized driver\";\r\n    }\r\n    \r\n    function deleteDriver(uint _token, uint _driverID) public payable onlyOwner returns(string memory) {\r\n        require(token == _token, \"Please Authenticate\");\r\n        for(uint i=0;i<vehicleOwner.authorizedDrivers.length;i++)\r\n        {\r\n            if(vehicleOwner.authorizedDrivers[i] == _driverID)\r\n            {\r\n                if(_driverID == vehicleOwner.currentDriver)\r\n                {\r\n                    vehicleOwner.currentDriver = vehicleOwner.driverID;\r\n                }\r\n                delete vehicleOwner.authorizedDrivers[i];\r\n                emit authenticatedEvent(_token);\r\n                return \"Driver deleted successfully\";\r\n            }\r\n        }\r\n    }\r\n    \r\n    function isAuthorized(uint _driver, uint _speed, bool _biometric) public payable onlyOwner returns(string memory){\r\n        if(_driver == vehicleOwner.driverID)\r\n        {\r\n            return \"Authorized\";\r\n        }\r\n        else if(_driver == vehicleOwner.currentDriver) {\r\n            if(_biometric == true)\r\n            {\r\n                return \"Authorized\";\r\n            } \r\n            else {\r\n                return \"Unauthorized access detected\";\r\n            }\r\n        }\r\n        else {\r\n            if(_speed > 0)\r\n            {\r\n                return \"Unauthorized access\";\r\n            }\r\n            else {\r\n                return \"No action required\";\r\n            }\r\n        }\r\n    }\r\n}\r\n\r\n",
  "sourcePath": "E:/vehicle-theft-detection/contracts/VehicleTheftDetection.sol",
  "compiler": {
    "name": "solc",
    "version": "0.5.16+commit.9c3226ce.Emscripten.clang"
  },
  "schemaVersion": "3.4.0",
  "updatedAt": "2021-05-06T08:08:53.295Z",
  "devdoc": {
    "methods": {}
  },
  "userdoc": {
    "methods": {}
  }
}